:02000000462890
:10000800FF00030E8301A4000A08A5008A018C1EC4
:100018001328981C1128181218161A08A000250869
:0C0028008A00240E8300FF0E7F0E0900EA
:0E0034008312031322088A00210882000800AC
:100042001A208A110A128000840AA10A0319A20A3C
:08005200F003031D2128080042
:10005A00831203179E019F019F11673083160313B2
:10006A0099001815181283129817181698128316E1
:10007A000C128C16181383121813831698129816DA
:02008A0008006C
:10008C0083120313A001203083168600850187019B
:10009C008312870186012D208B170B1783122008E2
:1000AC00773A031D5E282008A30020089900A52894
:1000BC002008613A031D67282008A3002008990036
:1000CC00A5282008733A031D70282008A3002008D7
:1000DC009900A5282008643A031D79282008A3005C
:1000EC0020089900A5282008713A031D82282008B1
:1000FC00A30020089900A5282008653A031D8B2829
:10010C002008A30020089900A5282008313A031DD7
:10011C0094282008A30020089900A5282008323A2A
:10012C00031D9D282008A30020089900A52820085D
:10013C00663A031DA5282008A3002008990054281E
:02014C00A628E3
:02400E00F40FAD
:00000001FF
