:02000000712865
:10000800FF00030E8301A7000A08A8008A017008F0
:10001800A0008C1C12280130F0001328F001701881
:10002800182883168C101A2883168C148C1C2128E7
:100038008312A10A0319A20A8C1083122008F00067
:0E00480028088A00270E8300FF0E7F0E090095
:0E0056008312031326088A0025088200080082
:100064002B208A110A128000840AA50A0319A60A01
:08007400F003031D322808000F
:10007C008312031322082A06031D46282908210689
:10008C00031D4D280130A3000030A4005C28003073
:10009C002206031D532832302106031D5C28023032
:1000AC00A3000030A400A101A2015C2800302406AA
:1000BC00031D622802302306031D6628871770284B
:1000CC0000302406031D6C2801302306031D702804
:0600DC00871370280800E4
:1000E20083120313A101A201A301A4010730831605
:1000F2008500103086008701831203179E019F013D
:1001020099019A0199139A130512851287010B1707
:100112008B170313921012101213921212129211D1
:100122008C1083168C14C830920083121215051C91
:10013200A6288518A6280519A628061AA628263054
:10014200A9000030AA003E20C5280518B428851C45
:10015200B4280519B428061AB4281930A9000030A9
:10016200AA003E20C5280518C2288518C228051DE8
:10017200C228061AC2280D30A9000030AA003E206B
:0C018200C528A101A20187139828C628F7
:02400E00F40FAD
:00000001FF
