:02000000792C59
:10000600103083120313FD00FD0B072800000800C3
:10001600083083120313FC002330FD00FD0B11286A
:06002600FC0B112808008C
:04002C0000000800C8
:08003000FA1FF2130030080072
:1000380083160313AE1B2328831207132528831264
:10004800071783162E1B2B28831207122D288312BD
:1000580007168316AE1A33288312871135288312A0
:10006800871583162E1A3B28831207113D28831201
:1000780007156A1841280714422807108714162004
:1000880087108316AE194B28831207134D28831245
:10009800071783162E19532883120712552883121F
:1000A80007168316AE185B28831287115D28831202
:1000B800871583162E186328831207116528831263
:1000C80007156A18692807146A2807108714162064
:0E00D80087106A1C71280B2072280320080074
:0E00E600F201F101F001F801F3010030080011
:1000F4007B15FB1F84280130F300F201F101F001AC
:08010400FA0DF20CFF300800B7
:10010C0083120313FB01FA01F9018030F800F10CA2
:10011C00F00C031C9A287408F90775080318750F5E
:10012C00FA070318FB0A0310F01FA2287408FA0739
:10013C0075080318750FFB07FB0CFA0CF90CF80C7F
:10014C00031C8D287B08F3007A08F2007908F10073
:06015C007808F000080025
:10016200FB14FB1FBB28FF30F300F200F100F0008C
:08017200FA0DF20CFF30080049
:10017A00A0017208031DD2287108F2007008F1006C
:10018A00F001A0157208031DD2287108F200F101CE
:10019A00A011201672080319E0282008F302031D93
:1001AA00031CE4280310F21BE828F00DF10DF20DF0
:1001BA00F30BD828E4280130FC007320EB28023026
:0E01CA00FC007A20EB280430FC00182008000E
:0601D800FB15FF300800DA
:0E01DE008312031367088A0066088200080077
:1001EC007B14FB1F0129F201FA1FFF30F200F10012
:0A01FC00F000FA0DF20CFF300800CD
:0E020600073083120313FD00FD0B07290800CB
:10021400831203136A106F088316AE001C206A143D
:020224000800D0
:10022600710DF80DF90D7408F8027508031C750FA9
:10023600F902F00DF10D0F30FC00710DF80DF90DFE
:100246007408701C2C29F8027508031C750FF90236
:100256003129F80775080318750FF907F00DF10D28
:10026600FC0B202970183D297408F8077508031837
:08027600750FF90700000800F4
:10027E00C330831203139F0540309F05F030831661
:10028E009F0483129F176B08F000F00D7010F00D95
:10029E00701070089F041F1403219F149F1C59296E
:1002AE00000055291F101E08F100F00183161E08CC
:0802BE00F0040030F104080017
:1002C600831203137408003A031D7E297508003A49
:1002D600031D7E297608003A031D7E297708003A19
:1002E600031D7E29FF30F000FF30F1007F30F20061
:1002F600FF30F300192A83120313770803190D2A16
:1003060073080319102A720876068039FA00F21764
:10031600F617A0017208F8007108FC007008FD00CD
:100326007408FD027508031C750FFC027608031C91
:10033600760FF802F801FC01FD01031CA929031040
:10034600F20CF10CF00CF80C0130A0007708F30267
:10035600031CB3297E302007F3070318132AB82994
:100366007E302007F307031C162A1830FA07FD0D06
:10037600FC0DF80DF00DF10DF20DA00D7408F00254
:100386007508031C750FF1027608031C760FF2023E
:10039600760DA004201CD1297D14DC297408F007F1
:1003A60075080318750FF10776080318760AF20721
:1003B6007D10FA031F307A05031DBA297B1B7D1CAD
:1003C600032A0310F00DF10DF20DA00D7408F002D2
:1003D6007508031C750FF1027608031C760FF202EE
:1003E600760D20040139FD070318FC0A0319F80AE3
:1003F600031D032AF80CFC0CFD0CF30A0319132A3F
:10040600FA1FF8137808F2007C08F1007D08F00066
:100416000030182A0130EC20182A02307320182ADE
:0E0426000430B120182A08307A2000000800A7
:100434002C2A803083120313EB003F2AC030EB00D8
:100444003F2A9430EB003F2AD430EB003F2A80301F
:10045400EB003F2A831203136B08013A03191B2A8A
:100464006B08023A0319202A6B08033A0319232A5A
:100474006B08043A0319262A292A6C03F0006B0836
:10048400F0077008EB006A1470088316AE001C2095
:0E0494006A106D088316AE001C206A14080062
:1004A200831203137008F8007108F000F101F201E1
:1004B200F301FB01FC019630F300FA01F01F672AF9
:1004C200F809F009F80A0319F00AFA177008F1009E
:0C04D2007808F000F801F201BD200800DD
:1004DE0083120313FB017308031D77080319C62A41
:1004EE0072087606FA007708F3077E30031C832A1B
:1004FE00F3020318C92A862AF302031CCC2A7208B7
:10050E00F8007108FC007008FD00F817F6170310CC
:10051E00F201F101F0011830A0007D1CA02A740830
:10052E00F00775080318750FF10776080318760F94
:10053E00F207F20CF10CF00CF80CFC0CFD0C031095
:10054E00A00B942AF21BB02AF80DF00DF10DF20D4E
:10055E00F3037B1B701CC22AF81FC22AF00A031970
:10056E00F10A0319F20A031DC22AF20CF10CF00C67
:10057E00F30A0319C92AFA1FF2130030CE2A0130EA
:10058E007320CE2A0230B120CE2A04307A20000009
:02059E00080053
:1005A000831603138712831212150C309704080068
:1005B000831603131208013EF000F1010318F10A3B
:1005C00083126B08F400F50186200630F2007008F3
:1005D000F4007108F50072080319F32AF50CF40C05
:1005E000F513FF3EEC2A0430F1007408F0007108A6
:1005F0000319FE2AF00D7010FF3EF82A3030700506
:10060000F3007408F0007508F100F10CF00CF11320
:10061000F10CF00CF113700895000F30970573087A
:040620009704080033
:0C062400831203139501171297120800AF
:100630002A2B803083120313EB003D2BC030EB00DC
:100640003D2B9430EB003D2BD430EB003D2B803024
:10065000EB003D2B831203136B08013A0319192B8E
:100660006B08023A03191E2B6B08033A0319212B5E
:100670006B08043A0319242B272B6C03F0006B083A
:10068000F0077008EB0070088316AE001C206A109B
:10069000EE016E086D07840000080319572B6E08E1
:1006A0006D0784000008EF000A21EE0A492B6A1446
:0206B000080040
:1006B200EF208A110A128000840AE60A0319E70A67
:0806C200F003031D592B080091
:1006CA0083120313FB0173080319A22B7208FA00A1
:1006DA00F2178E30F302F31FA52BF309F30A083041
:1006EA007302031C882BF300F10D7208F100F2016A
:1006FA0008307302031C882BF300F10DF101730813
:10070A00031D0310902B73080319902B0310F20C8E
:10071A00F10CF30B8B2B7B1B711C9A2B031C9A2B52
:10072A00F10A0319F20AF21BB12BFA1FB42BF209D0
:10073A00F109F10A0319F20AB42BF201F101B42BFF
:10074A007B14FB1FB72BF201FA1FB72BFF30F20005
:10075A00F100FA0DF20CB72B0130FC00B92B003076
:10076A00FC00B92BFF30FC00FC080319BD2BF62056
:0A077A007108F0007208F100080099
:10078400831203137408003A031DD12B7508003A31
:10079400031DD12BFF30F0007F30F1002A2C83128F
:1007A4000313FD01F901F801710870040319003401
:1007B40071087506FA00FA1BFD09FB01F51FE72B0A
:1007C400F409F509F40A0319F50AF11FEE2BF009EF
:1007D400F109F00A0319F10A71087504FA00FA1B09
:1007E400032C13217B18162CFD1F0034F009F1098A
:1007F400F00A0319F10AF809F909F80A0319F90AC0
:100804000034F51F122CF11B0E2C7108F90070082E
:10081400F800F101F001F62BF101F001F00A0034C7
:10082400F109F009FB0AF32BF80A0319F90A740811
:100834007802031DF62B75087902031DF62BF901C6
:10084400F801F00A0319F10AF11FF62B0000FF3436
:0208540008009A
:100856008316031387100710071187110712071352
:1008660083128710071007130712871107110B2031
:100876000B200B20871507158714162087100B20D1
:100886008714162087100B208714162087100B203C
:1008960007118714162087100B208714162087103F
:1008A600871107178714162087100B2007130715C3
:1008B60087141620871007118714162087100B201F
:1008C60087141620871007158714162087100B200B
:1008D600071187141620871007170716871507159F
:0C08E6008714162087100B206A140800ED
:1008F200E625013083160313850086018701013046
:10090200831203179E009F01860199139A132B24C9
:1009120012109210C73083169200122301308316F0
:10092200AE001C200C308316AE001C200130EB0000
:100932000130EC00A030ED001823D022EB013F2162
:1009420070088312E4007108E50051220030F400BF
:100952000030F5002030F6008130F7006F220030C1
:10096200F400C030F5007F30F6008830F7006321D4
:100972007008D2007108D3007208D4007308D50041
:100982000030F4000030F5004830F6008530F70002
:100992006F2265237008CB007108CC000A30F40086
:1009A2000030F500C2237008E8007108E9000A303F
:1009B200F4000030F5004B08F0004C08F100C223AF
:1009C2007808F0007908F1007008CD007108CE00B7
:1009D2000430F2006808D10072080319F42CD10D1A
:1009E2005110FF3EEE2C7008D1070130EB000D30A4
:1009F200EC0030306807ED001A220130EB000E30B7
:100A0200EC0030304D07ED001A220130EB000F30C0
:100A1200EC00DF30ED001A220130EB001030EC0068
:100A22004F30ED0018235108203C031C312D0230B9
:100A3200EB000330EC005630ED0018234D30EB0094
:100A4200D8220330FB008A30FC005530FD00FD0B3C
:100A5200282DFC0B282DFB0B282D000000008B2DD0
:100A62005108203C0318522D5108303C031C522DD2
:100A72000230EB000330EC003D30ED0018237F30F4
:100A8200EB00D8220330FB008A30FC005530FD0019
:100A9200FD0B492DFC0B492DFB0B492D00000000DD
:100AA2008B2D5108303C0318732D4030510203182E
:100AB200732D0230EB000330EC002F30ED001823D1
:100AC200C030EB00D8220330FB008A30FC005530E6
:100AD200FD00FD0B6A2DFC0B6A2DFB0B6A2D00003D
:100AE20000008B2D0230EB000330EC002130ED00D2
:100AF2001823FF30EB00D8220330FB008A30FC00C1
:100B02005530FD00FD0B832DFC0B832DFB0B832D3C
:080B1200000000009E2C8C2D58
:100BCC0021308400453083120313F0009230E6008C
:100BDC000530E7005923A03084000E308312F0005A
:0C0BEC00D730E6000530E7005923080070
:100B24004D344F3454344F345234203441345434DB
:0C0B3400203431343034303425340034A7
:100B40004D344F3454344F345234203441345434BF
:0C0B500020343734353425342034003490
:100B5C004D344F3454344F345234203441345434A3
:0C0B6C002034343430342534203400347C
:040B78000034003411
:040B7C00003400340D
:040B800043340034C6
:020B840000343B
:080B8600003400340034003497
:100B8E004D344F3454344F34523420344134543471
:0C0B9E002034323430342534203400344C
:040BAA0000340034DF
:100BAE00543445344D345034453452344134543435
:0C0BBE005534523445343D3420340034AA
:02400E00F40FAD
:00000001FF
