:02000000E128F5
:10000800FF00030E8301A6000A08A5008A017008F4
:10001800A0008C1C12280130F0001328F001701881
:10002800182883168C101A2883168C148C1C2128E7
:100038008312A10A0319A20A8C1083122008F00067
:0E00480025088A00260E8300FF0E7F0E090099
:04005600000008009E
:10005A00103083120313FD00FD0B31280000080045
:10006A00083083120313FC002330FD00FD0B3B28EC
:06007A00FC0B3B2808000E
:0E0080008312031324088A002308820008005C
:10008E0083160313851005100710871007118711AB
:10009E008312851005108711071187100710352060
:1000AE00352035208714071485142B208510352014
:1000BE0085142B208510352085142B208510352096
:1000CE00071085142B208510352085142B208510C4
:1000DE008710871585142B2085103520871107145E
:1000EE0085142B208510071085142B2085103520A4
:1000FE0085142B208510071485142B208510352090
:10010E00071085142B2085108715071587140714E3
:0C011E0085142B208510352027140800C4
:10012A0083120313A81B9B2887119C288715281B59
:10013A00A0280711A1280715A81AA5288710A628FC
:10014A008714281AAA280710AB2807142718AF28DB
:10015A000514B028051085142B208510A819B72876
:10016A008711B82887152819BC280711BD28071533
:10017A00A818C1288710C22887142818C62807106B
:10018A00C72807142718CB280514CC28051085146E
:10019A002B208510271CD3283520D4282D20080091
:1001AA0040208A110A128000840AA30A0319A40AA9
:0801BA00F003031DD528080025
:1001C20083120313A101A20183168501860187010F
:1001D200831203179E019F01850186018701472033
:1001E2000130A80095200C30A80095200B178B1722
:1001F2009210121012139212121292118C10831674
:100202008C14C83092008312121500302206031D8E
:100212000C2919302106031D132980308706A101FC
:08022200A20113290629142989
:02400E00F40FAD
:00000001FF
