:0200000069286D
:10000800FF00030E8301A3000A08A4008A018C1EC6
:100018001328981C1128181218161A08A200240868
:0C0028008A00230E8300FF0E7F0E0900EB
:10003400831203130C1A1F281A2827089900080092
:0E0044008312031321088A002008820008009E
:10005200831203132508A0002608A10022208A117A
:100062000A12F0007008031943282508A000260888
:10007200A10022208A110A12A7001A20A50A031938
:06008200A60A292808006F
:10008800831203179E019F019F11193083160313D2
:1000980099001815181283129817181698128316B3
:1000A8000C128C16181383121813831698129816AC
:0200B80008003E
:1000BA0022208A110A128000840AA00A0319A10ABE
:0800CA00F003031D5D2808008E
:1000D200203083160313860085018701831287016E
:1000E200860144209C308312A5000030A6002920FE
:1000F2008B170B17A2012208003A03198F28220836
:10010200413A03198F280A30A7001A200D30A700A0
:100112001A202208A7001A20A2019A282208003ACF
:1001220003199A282208413A031D9A284130870070
:06013200A2017C289B28BD
:10013800483465346C346C346F34203457346F343D
:0A01480072346C3464342134003446
:02400E00F50FAC
:00000001FF
