:02000000F729DE
:10000800FF00030E8301CC000A08CB008A017008A8
:10001800A0000C1C12280130F0001328F001701801
:10002800182883160C101A2883160C140C1C252863
:100038008312BA0A0319BB0A0C103C308F00AF3088
:100048008E0083122008F0004B088A004C0E8300B3
:06005800FF0E7F0E0900FF
:04005E000000080096
:10006200103083120313FD00FD0B35280000080039
:10007200083083120313FC002330FD00FD0B3F28E0
:06008200FC0B3F28080002
:1000880083120313D21B4A2887114B288715521B4A
:100098004F28071150280715D21A542887105528B9
:1000A8008714521A592807105A2807144A185E2824
:1000B80007165F28071287162F208712D21966287D
:1000C80087116728871552196B2807116C2807159F
:1000D800D2187028871071288714521875280710AD
:1000E800762807144A187A2807167B2807128716D5
:1000F8002F2087124A1C82283920832831200800A3
:0E0108008312031349088A0048088200080089
:10011600710DF80DF90D7408F8027508031C750FBA
:10012600F902F00DF10D0F30FC00710DF80DF90D0F
:100136007408701CA428F8027508031C750FF902D0
:10014600A928F80775080318750FF907F00DF10DC2
:10015600FC0B98287018B5287408F807750803185A
:08016600750FF9070000080005
:10016E00831203134A105108D20044204A14080087
:10017E00D128803083120313CD00E428C030CD0087
:10018E00E4289430CD00E428D430CD00E42880302B
:10019E00CD00E428831203134D08013A0319C02839
:1001AE004D08023A0319C5284D08033A0319C82809
:1001BE004D08043A0319CB28CE284E03F0004D0803
:1001CE00F0077008CD004A147008D20044204A107F
:0A01DE004F08D20044204A14080024
:1001E8000629803083120313CD001929C030CD00B1
:1001F80019299430CD001929D430CD00192980301F
:10020800CD001929831203134D08013A0319F52863
:100218004D08023A0319FA284D08033A0319FD2834
:100228004D08043A0319002903294E03F0004D082C
:10023800F0077008CD007008D20044204A10D001A1
:1002480050084F07840000080319322950084F0747
:1002580084000008D100B720D00A24294A140800D5
:10026800831203137408003A031D43297508003AE2
:10027800031D4329FF30F0007F30F100080083128E
:100288000313FD01F901F801710870040319003422
:1002980071087506FA00FA1BFD09FB01F51F5929BB
:1002A800F409F509F40A0319F50AF11F6029F009A0
:1002B800F109F00A0319F10A71087504FA00FA1B2A
:1002C80075298B207B188829FD1F0034F009F10956
:1002D800F00A0319F10AF809F909F80A0319F90AE1
:1002E8000034F51F8429F11B80297108F900700872
:1002F800F800F101F0016829F101F001F00A003479
:10030800F109F009FB0A6529F80A0319F90A7408C2
:100318007802031D682975087902031D6829F90107
:10032800F801F00A0319F10AF11F68290000FF34E7
:020338000800BB
:10033A0083160313871207120710871007118711F4
:10034A0083128712071287110711871007103920A5
:10035A00392039208714071487162F20871239204D
:10036A0087162F208712392087162F2087123920C7
:10037A00071087162F208712392087162F208712F9
:10038A008710871587162F2087123920871107149F
:10039A0087162F208712071087162F2087123920D9
:1003AA0087162F208712071487162F2087123920C5
:1003BA00071087162F208712871507158714071429
:0C03CA0087162F20871239204A140800E3
:1003D60084208A110A128000840AC80A0319C90AED
:0803E600F003031DEB290800E0
:1003EE00FC228316031385018601870183120317EE
:1003FE009E019F0186018501870185129D21013095
:10040E00D20044200C30D20044200130CD00043004
:10041E00CE002F30CF00F4200230CD000230CE00BF
:10042E002130CF00F4200B178B17101390121012DF
:10043E000C1083160C14831290103C308F00AF30CA
:10044E008E00101400303B06031D2F2A14303A067E
:10045E00031DCE2ABC0A0319BD0ABA01BB010A301C
:10046E00F4000030F5003C08F0003D08F1003421A6
:10047E007008B8007108B9000A30F4000030F500B9
:10048E003C08F0003D08F10034217808F0007908AE
:10049E00F1007008C2007108C3000130CD000A30AF
:1004AE00CE0030303807CF00BF2030304207D100A9
:1004BE00B72000303D06031D662A3C303C06031D66
:1004CE00CE2ABC01BD01C00A0319C10A0A30F400CC
:1004DE000030F5004008F0004108F10034217008AA
:1004EE00BF000A30F4000030F5004008F00041086B
:1004FE00F10034217808F0007908F1007008BE0090
:10050E000130CD000730CE0030303F07CF00BF2086
:10051E0030303E07D100B72000304106031D992A26
:10052E003C304006031DCE2AC60A0319C70A0A30FC
:10053E00F4000030F5004608F0004708F1003421C1
:10054E007008C5000A30F4000030F5004608F000CF
:10055E004708F10034217808F0007908F10070089E
:10056E00C4000130CD000430CE0030304507CF003E
:10057E00BF2030304407D100B72000304706031D9E
:10058E00CA2A0C304606031DCE2AC601C701282AE8
:02059E00CF2A62
:1005F80021308400273083120313F000D530C8005F
:080608000230C900EB210800DB
:1005AA0032343434203448344F34553452342034BD
:0C05BA0043344C344F3443344B34003491
:1005C600303430343A34303430343A3430343034F1
:0205D6000034EF
:0405D80000340034B7
:0405DC0000340034B3
:0405E00000340034AF
:0405E40000340034AB
:0405E80000340034A7
:0405EC0000340034A3
:0405F000003400349F
:0405F400003400349B
:02400E00F40FAD
:00000001FF
