:020000001628C0
:0E0006008312031321088A00200882000800DC
:1000140003208A110A128000840AA00A0319A10A83
:08002400F003031D0A28080087
:10002C00043083160313850086018701831203179E
:10003C009E019F0199139A1386018701051C4B2879
:10004C0085184B2807140230FC007D30FD00FD0B99
:10005C002D28FC0B2D2807101930FC007930FD00E1
:10006C00FD0B3628FC0B3628000000000B30FB0083
:10007C002630FC005D30FD00FD0B4228FC0B4228B5
:10008C00FB0B4228000000005F2805185E28851C29
:10009C005E280714E930FD00FD0B522807101A30BA
:1000AC00FC000F30FD00FD0B5928FC0B59285F2874
:0600BC0007102428602853
:02400E00F40FAD
:00000001FF
