:0200000088284E
:10000800FF00030E8301A9000A08AA008A017008EC
:10001800A0008C1E5328981C1328181218161A08AA
:10002800A1002108773A031D1C282108A4005328A1
:100038002108613A031D23282108A4005328210818
:10004800733A031D2A282108A40053282108643A7A
:10005800031D31282108A40053282108713A031DE3
:1000680038282108A40053282108653A031D3F2891
:100078002108A40053282108313A031D46282108E5
:10008800A40053282108323A031D4D282108A40052
:1000980053282108663A031D53282108A400200884
:1000A800F0002A088A00290E8300FF0E7F0E09003F
:0E00B8008312031323088A0022088200080026
:1000C6005C208A110A128000840AA20A0319A30A74
:0800D600F003031D632808007C
:1000DE00831203179E019F019F116730831603132E
:1000EE00990018151812831298171816981283165D
:1000FE000C128C1618138312181383169812981656
:02010E000800E7
:1001100083120313A1012030831686008501870115
:10012000831287018601A701A801A501A6016F20FE
:100130008B170B1783122408003A031DA0289A2856
:100140002408773A031DA72805308700102A2408C1
:10015000733A031DAE280A308700102A2408613A3A
:10016000031DB52804308700102A2408643A031DB3
:10017000BC2801308700102A2408653A031DC328D3
:1001800025308700102A2408713A031DCA28203020
:100190008700102A2408313A031D1C290030280644
:1001A000031DD42800302706031D1C2903308500B9
:1001B0000630FB001330FC00AD30FD00FD0BDE28E7
:1001C000FC0BDE28FB0BDE2800000000023085005F
:1001D0000630FB001330FC00AD30FD00FD0BEE28B7
:1001E000FC0BEE28FB0BEE2800000000063085001B
:1001F0000630FB001330FC00AD30FD00FD0BFE2887
:10020000FC0BFE28FB0BFE280000000004308500DC
:100210000630FB001330FC00AD30FD00FD0B0E2955
:10022000FC0B0E29FB0B0E2900000000A40101307D
:10023000A7000030A800102A2408313A031D6C29B9
:1002400000302806031D262901302706031D6C29CE
:10025000143085000630FB001330FC00AD30FD008B
:10026000FD0B3029FC0B3029FB0B3029000000006E
:10027000103085000630FB001330FC00AD30FD006F
:10028000FD0B4029FC0B4029FB0B4029000000001E
:10029000113085000630FB001330FC00AD30FD004E
:1002A000FD0B5029FC0B5029FB0B502900000000CE
:1002B000013085000630FB001330FC00AD30FD003E
:1002C000FD0B6029FC0B6029FB0B6029000000007E
:1002D000A401A701A801102A2408323A031DBE294F
:1002E00000302606031D762900302506031DBE2991
:1002F000113085000630FB001330FC00AD30FD00EE
:10030000FD0B8029FC0B8029FB0B802900000000DD
:10031000103085000630FB001330FC00AD30FD00CE
:10032000FD0B9029FC0B9029FB0B9029000000008D
:10033000143085000630FB001330FC00AD30FD00AA
:10034000FD0BA029FC0BA029FB0BA029000000003D
:10035000043085000630FB001330FC00AD30FD009A
:10036000FD0BB029FC0BB029FB0BB02900000000ED
:10037000A4010130A5000030A600102A2408323A5A
:10038000031D0E2A00302606031DC829013025064C
:10039000031D0E2A063085000630FB001330FC00DA
:1003A000AD30FD00FD0BD229FC0BD229FB0BD2296D
:1003B00000000000023085000630FB001330FC0016
:1003C000AD30FD00FD0BE229FC0BE229FB0BE2291D
:1003D00000000000033085000630FB001330FC00F5
:1003E000AD30FD00FD0BF229FC0BF229FB0BF229CD
:1003F00000000000013085000630FB001330FC00D7
:10040000AD30FD00FD0B022AFC0B022AFB0B022A79
:1004100000000000A401A501A601102A87018501A2
:06042000A4019A28122A33
:02400E00F40FAD
:00000001FF
