:02000000A02A34
:0E000600F201F101F001F801F30100300800F1
:08001400FA1FF213003008008E
:10001C007B15FB1F18280130F300F201F101F001F0
:08002C00FA0DF20CFF30080090
:10003400710DF80DF90D7408F8027508031C750F9D
:10004400F902F00DF10D0F30FC00710DF80DF90DF2
:100054007408701C3328F8027508031C750FF90224
:100064003828F80775080318750FF907F00DF10D16
:10007400FC0B2728701844287408F807750803181F
:08008400750FF90700000800E8
:0E008C008312031328088A0027088200080048
:10009A00A0017208031D62287108F2007008F100BD
:1000AA00F001A0157208031D62287108F200F1011F
:1000BA00A01120167208031970282008F302031DE4
:1000CA00031C74280310F21B7828F00DF10DF20DB1
:1000DA00F30B682874280130FC0003207B280230C7
:0E00EA00FC000E207B280430FC000A200800D9
:0600F800FB15FF300800BB
:1000FE00FB14FB1F8928FF30F300F200F100F00023
:08010E00FA0DF20CFF300800AD
:100116007B14FB1F9628F201FA1FFF30F200F10054
:0A012600F000FA0DF20CFF300800A3
:1001300083120313FB017308031D77080319EF28CB
:1001400072087606FA007708F3077E30031CAC28A5
:10015000F3020318F228AF28F302031CF5287208F3
:10016000F8007108FC007008FD00F817F61703107E
:10017000F201F101F0011830A0007D1CC9287408BB
:10018000F00775080318750FF10776080318760F46
:10019000F207F20CF10CF00CF80CFC0CFD0C031047
:1001A000A00BBD28F21BD928F80DF00DF10DF20DB2
:1001B000F3037B1B701CEB28F81FEB28F00A0319D4
:1001C000F10A0319F20A031DEB28F20CF10CF00CF2
:1001D000F30A0319F228FA1FF2130030F72801304E
:1001E0000320F72802307F20F72804300E2000007B
:0201F000080005
:1001F200831203137408003A031D08297508003A94
:10020200031D0829FF30F0007F30F10061298312BD
:100212000313FD01F901F801710870040319003498
:1002220071087506FA00FA1BFD09FB01F51F1E296C
:10023200F409F509F40A0319F50AF11F2529F00951
:10024200F109F00A0319F10A71087504FA00FA1BA0
:100252003A291A207B184D29FD1F0034F009F109B3
:10026200F00A0319F10AF809F909F80A0319F90A57
:100272000034F51F4929F11B45297108F90070085E
:10028200F800F101F0012D29F101F001F00A00342A
:10029200F109F009FB0A2A29F80A0319F90A740874
:1002A2007802031D2D2975087902031D2D29F901F4
:1002B200F801F00A0319F10AF11F2D290000FF3499
:0202C200080032
:1002C400831203137408003A031D7D297508003A4C
:1002D400031D7D297608003A031D7D297708003A1D
:1002E400031D7D29FF30F000FF30F1007F30F20064
:1002F400FF30F300182A83120313770803190C2A1A
:10030400730803190F2A720876068039FA00F21767
:10031400F617A0017208F8007108FC007008FD00CF
:100324007408FD027508031C750FFC027608031C93
:10033400760FF802F801FC01FD01031CA829031043
:10034400F20CF10CF00CF80C0130A0007708F30269
:10035400031CB2297E302007F3070318122AB72999
:100364007E302007F307031C152A1830FA07FD0D09
:10037400FC0DF80DF00DF10DF20DA00D7408F00256
:100384007508031C750FF1027608031C760FF20240
:10039400760DA004201CD0297D14DB297408F007F5
:1003A40075080318750FF10776080318760AF20723
:1003B4007D10FA031F307A05031DB9297B1B7D1CB0
:1003C400022A0310F00DF10DF20DA00D7408F002D5
:1003D4007508031C750FF1027608031C760FF202F0
:1003E400760D20040139FD070318FC0A0319F80AE5
:1003F400031D022AF80CFC0CFD0CF30A0319122A43
:10040400FA1FF8137808F2007C08F1007D08F00068
:100414000030172A01307C20172A02300320172AC3
:0E04240004307F20172A08300E200000080048
:1004320046208A110A128000840AA70A0319A80A10
:08044200F003031D192A080054
:10044A0083120313FB0173080319622A7208FA0064
:10045A00F2178E30F302F31F652AF309F30A083004
:10046A007302031C482AF300F10D7208F100F2012D
:10047A0008307302031C482AF300F10DF1017308D6
:10048A00031D0310502A73080319502A0310F20C93
:10049A00F10CF30B4B2A7B1B711C5A2A031C5A2A98
:1004AA00F10A0319F20AF21B712AFA1F742AF209D5
:1004BA00F109F10A0319F20A742AF201F101742A04
:1004CA007B14FB1F772AF201FA1F772AFF30F2000A
:1004DA00F100FA0DF20C772A0130FC00792A00307B
:1004EA00FC00792AFF30FC00FC0803197D2A8B20C6
:0A04FA007108F0007208F10008001C
:10050400831203137008F8007108F000F101F2017E
:10051400F301FB01FC019630F300FA01F01F982A65
:10052400F809F009F80A0319F00AFA177008F1003B
:0C0534007808F000F801F2014D200800EA
:1005400004308316031385008701043083120317D8
:100550009E009F0103131F149F121F129F151F114E
:100560001F1383161F179F161F1283129F178230A7
:10057000FC00DD30FD00FD0BBB2AFC0BBB2A00009C
:1005800000009F149F1CC52AC22A0330FB000830BC
:10059000FC007730FD00FD0BCB2AFC0BCB2AFB0BBC
:1005A000CB2A83161E088312B100B2011E08AF00C9
:1005B000B0012F08F100F0013108F00732080318EC
:1005C000013EF1077008AD007108AE0082220030D4
:1005D000F4000030F5002030F6008130F70098205C
:1005E0000030F400C030F5007F30F6008830F700AE
:1005F00062217008A9007108AA007208AB00730894
:10060000AC000030F4000030F5004830F6008530D2
:10061000F700982025227008A5007108A6000A306E
:10062000F4000030F500F9207008A3007108A40060
:100630000A30F4000030F5002508F0002608F1002B
:10064000F9207808F0007908F1007008A10071081D
:10065000A2000430F3002308F20073080319342BBE
:10066000F20D7210FF3E2E2B700872078700823049
:10067000FC00DD30FD00FD0B3B2BFC0B3B2B000099
:060680000000B72A422B26
:02400E00F20FAF
:00000001FF
