:02000000D728FF
:10000800FF00030E8301B1000A08B2008A017008DC
:10001800A0000C1C12280130F0001328F001701801
:10002800182883160C101A2883160C140C1C252863
:100038008312A70A0319A80A0C103C308F00AF30AE
:100048008E0083122008F00032088A00310E8300E7
:06005800FF0E7F0E0900FF
:10005E00710DF80DF90D7408F8027508031C750F73
:10006E00F902F00DF10D0F30FC00710DF80DF90DC8
:10007E007408701C4828F8027508031C750FF902E5
:10008E004D28F80775080318750FF907F00DF10DD7
:10009E00FC0B3C28701859287408F80775080318CB
:0800AE00750FF90700000800BE
:0E00B6008312031330088A002F08820008000E
:1000C4005B208A110A128000840AAF0A0319B00A5D
:0800D400F003031D622808007F
:1000DC00831203137408003A031D7D287508003A37
:1000EC00031D7D28FF30F0007F30F10008008312E3
:1000FC000313FD01F901F8017108700403190034B0
:10010C0071087506FA00FA1BFD09FB01F51F93280F
:10011C00F409F509F40A0319F50AF11F9A28F009F4
:10012C00F109F00A0319F10A71087504FA00FA1BB7
:10013C00AF282F207B18C228FD1F0034F009F109CD
:10014C00F00A0319F10AF809F909F80A0319F90A6E
:10015C000034F51FBE28F11BBA287108F90070088D
:10016C00F800F101F001A228F101F001F00A0034CD
:10017C00F109F009FB0A9F28F80A0319F90A740817
:10018C007802031DA22875087902031DA228F90123
:10019C00F801F00A0319F10AF11FA2280000FF343C
:0201AC00080049
:1001AE0083120313A101A201A301A401A501A601BB
:1001BE00A701A801A901AA01AB01AC01AD01AE01D5
:1001CE008316850186018701831203179E019F0105
:1001DE000B178B1703131013901210120C1083169B
:1001EE000C14831290103C308F00AF308E008601BD
:1001FE00850187018512101400302806031D092978
:10020E0014302706031DAD29A50A0319A60AA70156
:10021E00A8010A30F4000030F5002508F000260889
:10022E00F1006E207008A9007108AA000A30F400CF
:10023E000030F5002508F0002608F1006E20780841
:10024E00F0007908F1007008AD007108AE000430BE
:10025E00F3002908F200730803193929F20D721000
:10026E00FF3E332970087207870000302606031DF3
:10027E0042293C302506031DAD29A501A601AB0A76
:10028E000319AC0A0A30F4000030F5002B08F00018
:10029E002C08F1006E207008A1000A30F400003026
:1002AE00F5002B08F0002C08F1006E207808F00005
:1002BE007908F1007008A2002108F200F20D721008
:1002CE00F20D7210F20D7210F20D7210720886009D
:1002DE00701873290510742905147008F200F20CB9
:1002EE00F21372187C2985107D2985147008F2008E
:1002FE00F20CF213F20CF2137218872905118829E9
:10030E0005150330F3007008F200730803199329E2
:10031E00F20CF213FF3E8D29721897298512982937
:10032E00851600302C06031D9E293C302B06031D1E
:10033E00AD29A30A0319A40A00302406031DA92916
:10034E000C302306031DAD29A301A4010229AE29F9
:02400E00F40FAD
:00000001FF
